:040000006F10402A13
:100004000000000000000000DA050000DA0500002E
:1000140000000000DA0500000000000000000000FD
:10002400DA050000DA05000000000000000000000E
:10003400E000000000000000DA05000000000000FD
:10004400DA050000DA050000DA050000000000000F
:10005400DA050000DA050000DA050000DA05000020
:10006400DA050000DA050000DA050000DA05000010
:10007400DA050000DA050000DA050000DA05000000
:10008400DA050000DA050000DA050000DA050000F0
:10009400DA050000DA050000DA050000DA050000E0
:1000A400DA050000DA050000DA050000DA050000D0
:1000B400DA050000DA050000DA050000DA050000C0
:1000C400DA050000840B0000DA050000DA05000000
:0C00D400DA050000DA050000DA05000083
:1000E00001113AC63EC483A7818242C246C0850739
:1000F00023A4F18237F700E003280701B1678328C2
:100100004701938707B8C2972ACE36C82ECC32CA89
:1001100033B507011CCBB306150154CB23220700CE
:100120007245E2455246C2463247A24712488248CB
:10013000056173002030B7F700E09C4737F700E017
:100140003E951C47898FE3CE07FE828079714ECEA3
:100150005EC6B70910FFB70B00F122D426D252CCED
:1001600056CA5AC862C466C206D64AD0AA84214B6F
:1001700037140140FD1B370C0003B70C0004FD19B8
:10018000B70A4000370A300093978401E18763D6AD
:10019000070A83270480B3F77701B3E79701232089
:1001A000F48013056003413F832704801305800218
:1001B0007D1BB3F73701B3E757012320F480A53F38
:1001C000832704808604137BFB0FB3F73701B3E763
:1001D00047012320F48093F4F40FE3170BFA8327ED
:1001E0000480370700F17D17F98F37070004D98F96
:1001F0002320F480130560033D3F8327048013050B
:100200008002B3F73701B3E757012320F480253785
:1002100083270480B2509254B3F93701B3E94901FE
:100220002320348122540259F249624AD24A424B75
:10023000B24B224C924C4561828083270480B3F7F5
:100240007701B3E78701A1BF411122C493171500BD
:10025000131435003E9426C206C64AC01374E40F38
:100260009944FD14014593F4F40FCD35FDF8930442
:10027000A400056993F4F40F1309C935A287CA973E
:1002800003C5070005041374F40FC935E39884FE11
:10029000B24022449244024941018280411122C469
:1002A0003714014083270480370700F17D17F98F49
:1002B0003707000326C206C6D98FAA842320F480FC
:1002C000130580028D3D83270480370710FF7D17BB
:1002D000F98F37073000D98F2320F4802244B240B1
:1002E0002685924441019DB5411122C43714014035
:1002F00003270480B70700F126C29384F7FF658FB8
:10030000B707000306C65D8F2320E4801305800233
:100310001D3503270480B70710FFFD177D8FB70732
:1003200040005D8F2320E480130580022935832758
:10033000048037070004B240E58FD98F2320F48072
:100340002244924441018280411122C42A8413052F
:10035000800706C626C2AE8491370145C53B13050A
:100360002002ED332685DD33138514001375F50F58
:10037000F13B1375F400D93B135544001365050197
:10038000F13313E5040BD9332244B24092444101C6
:10039000A1BF4111AA85014506C622C475371305C0
:1003A0008007ED3D13050004553301447D140145DC
:1003B0001374F40F613B7DF82244B24041012DB724
:1003C000411122C42A841305800706C6C13D1305C6
:1003D0000004AD3B22858D3D2244B240410129B746
:1003E000411122C42A841305800706C626C27D3522
:1003F00013050004A13B9304F00F034504006317A9
:1004000095002244B24092444101F9BD05042D3DBE
:10041000EDB701114AC82A891305800706CE22CC00
:1004200026CA4EC652C456C2953D130500048964BF
:10043000313B9549938404710144294AA54A3355B7
:100440009902A6871375F50F33799902B3D4440343
:1004500001C505041374F40F63E5FA000504137471
:10046000F40F11CCFD19CD33E39B09FC6244F2403B
:10047000D2444249B249224A924A0561B5B5514532
:10048000D5B7011122CC37140140832704803707E8
:1004900000F17D17F98F3707000426CA4AC84EC6F7
:1004A00052C456C25AC006CED98FB70910FF2320B6
:1004B000F480AA8A2149814413040480FD19370A73
:1004C0004000370B300013056003B5311C401305A5
:1004D00080028604B3F73701B3E747011CC0A13996
:1004E0001C4493F4F40F93F7070499C393E41400A6
:1004F0001C407D191379F90FB3F73701B3E7670192
:100500001CC0E31209FC638B0A001C40370700F192
:100510007D17F98F37070003D98F1CC013056003BF
:1005200019393714014003270480B70710FF1389D6
:10053000F7FF33772701B70740005D8F2320E48062
:1005400013058002CD3E8327048037073000F24038
:10055000B3F72701D98F2320F48062444249B2497E
:10056000224A924A024B2685D2440561828041117B
:1005700022C42A841305000806C60D332285F936E5
:100580003714014083270480370700F17D17F98F66
:1005900037070004D98F2320F48013058002613EC1
:1005A00083270480370710FF7D17F98F3707400036
:1005B000D98F2320F48013051008CD310545D1359E
:1005C0002A8401457D3D2204498C4204313B41800F
:1005D000B240228522444101828001A09387C182DA
:1005E00003C7470183C65701158F1377F70F636859
:1005F000A700DC470A053E950355E5FF8280198D6B
:1006000019473305E5029C4B3E950355A5FF8280B3
:100610009387C18203C7470183C65701158F13779C
:10062000F70F6368A700DC470A053E950355E5FF11
:100630008280198D19473305E5029C4B3E95035581
:10064000C5FF8280B77702401307200A2396E70090
:100650002397E7009387C182A384070023850700BF
:1006600023840700238A0700A38A070023A007002A
:1006700023A207002381070213878702A3810702B1
:10068000D8C71387C7032382070298CB0547238B5C
:10069000E70023800702238DE700A38DE7000567AD
:1006A00013078738239EE700239FE7008280B777F0
:1006B000024003D70700118B21C303D7E70042078D
:1006C0004183136707012397E700B77702401307B9
:1006D000F0042391E7004205A382070041812393A0
:1006E000A700A384070003C747001377F70F13671A
:1006F00037002382E700828003D7C7004207418387
:10070000136707012396E700C9B7797122D426D26F
:100710004AD04ECE52CC56CA5AC89387C18206D60A
:100720005EC662C405698569216AC16A23800702C1
:100730009304F00F1384C18213094933138BF9E139
:10074000130AFAE1FD1A034C0402137CFC0F631632
:100750000C00FD1493F4F40F99ECB250225402599A
:10076000F249624AD24A424BB24B224C3335900096
:1007700092544561828037B5030013050598653AA8
:10078000B777024003D7C700420741831377E7F1E9
:10079000420741832396E70003D7C70042074183FE
:1007A000136707042396E70083D6C70003D7E70043
:1007B000C206420741831377E7F14207418323973B
:1007C000E70003D7E700C1824207418313670704AC
:1007D0002397E70083D7E7000947858B99E313F751
:1007E00016008357840185468507C207C183231CF1
:1007F000F4001C406393D7046318F7082305040032
:10080000834794009546850793F7F70FA304F400F8
:100810008347940093F7F70F63F1F602A3040400F3
:1008200089471CC0B776024083D70600C207C18340
:10083000ED9BC207C1832390F6001440854763FBFC
:10084000D70249E7834784001547850793F7F70FD9
:100850002304F4008347840093F7F70F637CF700C9
:100860002304040023200400B7E700E03707020058
:1008700023A2E718832B04001C402547636FF70869
:100880008A07CA979C4382878947A3040400631C94
:10089000F7028347A4009546850793F7F70F2305D2
:1008A000F4008347A40093F7F70FE3F8F6F8230565
:1008B000040018C0B776024083D70600C207C18380
:1008C00093E747008DBF2305040085BF2304040080
:1008D00055B7B7E700E03707020023A2E7189D33BA
:1008E00085471CC01DA858401C406308F702377795
:1008F0000240930770072311F7008347470093F7DF
:10090000C70F93E727002302F700B7E700E0A388AB
:1009100007423707020023A2E7102322740125B5FE
:100920008347340293F7F70FEDDBA3010402B7E727
:1009300000E0370702000328C400144823A2E71888
:10094000A30A0400B70800F0370300C0294E93053E
:1009500020031946130540068347440193F7F70F18
:10096000636AFC00B7E700E03707020023A2E71044
:10097000914785BF13172C00B307E400BC47B3FEB3
:10098000170163986E060347540193DE170193FE27
:10099000FE0F1377F70F3307C702B38EAE023697F9
:1009A0002311D7010347540193DE870093FEFE0F06
:1009B0001377F70F3307C70293F7F707B38EAE022B
:1009C00036972310D70103475401B387B702137733
:1009D000F70F3307C70236972312F70083475401F6
:1009E000850793F7F70FA30AF400050C137CFC0F9F
:1009F000A5B793FEF73FA98393F7F73FB38ECE03D6
:100A00004297B387B7022310D7012311F700F1BF34
:100A100058401C406307F70A8347A4018346240219
:100A20001387290093F5F70F9D8AA606D98E0347F1
:100A30006401B3F6460193F6F6F30D8B1A07D98ECF
:100A40000347440103465401F2071377F70F137667
:100A5000F60F118F6351B7080356C4015147420680
:100A600041823356E6021387F9FF798E2606034743
:100A70005401D18F034644011377F70F2E97137655
:100A8000F60F118F7D170A07229703578702130667
:100A900020033357C702370600031377F707518F38
:100AA000370600FD130606F8F18FD98F33F757018B
:100AB0001945C1832312D4062313E4062314F40634
:100AC000FD368347440293F7F70FE38807E42302D8
:100AD0000402954739B51387F5FF0A072297035794
:100AE00087022946B70500033357C7021377F73F3C
:100AF0001316A7004D8F518F4DBF8347340293F7D4
:100B0000F70FE38C07E0A3010402A5471CC0231CD8
:100B1000040021B585472300F4020347A40183475D
:100B2000B4011377F70F93F7F70F631CF700035720
:100B3000C4018357E4014207C2074183C183E30E26
:100B4000F7DC8347A401094593F7F70FA30DF400E1
:100B50008357C401C207C183231FF400230004028A
:100B600083472402034764019D8BA60793E7770020
:100B70000D8B1A07B3F76701D98F2312F406053ED0
:100B8000A94785B35D713AD2377702403ED083479B
:100B9000970086C696C49AC29EC022DE26DC2ADA58
:100BA0002ED832D636D442CE46CC72CA76C87AC651
:100BB0007EC493F70702B5CB8347970085468D8B9C
:100BC000639BD7040357A70095464207418363F40C
:100BD000E6049386C18203D446069384C182131728
:100BE00004014187634D070E1D66618E1377F40182
:100BF000631F06100D466302C70E19466307C71030
:100C0000631FF70C2382E60283C72602850793F74A
:100C1000F70F2381F602377702408347970093F757
:100C2000F70F93E70702A304F700B777024003C763
:100C3000970062076187635D070403D7C700854695
:100C4000420741833D9B420741832396E70003D738
:100C5000E700420741833D9B420741832397E7001A
:100C6000130770072391E70003C747001377C70FE7
:100C7000136727002382E7001387C182A301D702ED
:100C800003C79700136707F81377F70FA384E700EC
:100C9000377702408347970093F7070491CB834748
:100CA000970093F7F70F93E70704A304F700593A67
:100CB0007254B640A64216438643E2545255C2557A
:100CC0003256A256125782577248E248524EC24ECE
:100CD000324FA24F6161730020309D479CC01305C5
:100CE000005AEFF04FC5A381040203C76401935774
:100CF00094009D8BA6070D8B1A0793E71700D98FD9
:100D000009452392F406653239B7A147C1BFE318FC
:100D1000F7FC8D479CC09357C4009D8B238AF40039
:100D2000935764008D8B238BF4001387440681470F
:100D3000F146138684040507E383D7FA03451700B9
:100D4000B305F60085072380A500F5B7411122C43D
:100D50002A841305800706C6EFF04FD4130500045C
:100D6000EFF0CFBEA547014563F587002945335510
:100D7000A402EFF06FCD29453375A402EFF0CFCC7C
:100D80002244B24041016FF02FD6B717014083A62D
:100D900007807D7685651306F60F5D71F18E1386EB
:100DA000058086C6A2C4A6C2CAC056DA4EDE52DC90
:100DB0005AD85ED662D466D26AD06ECED18E23A0C7
:100DC000D780914623A8D78083A6078045767D16D5
:100DD000F18E2166D18E23A0D780A14623A8D7808B
:100DE00083A607803706F1FF7D16F18E37060800CF
:100DF000D18E23A0D780C14623A8D780B7F600E0C4
:100E000023A0060037E600E031652320B610130565
:100E1000F5B788CA8145CCCA81458CC60146D0C683
:100E20001D4690C283A60780370610FF7D16F18EFF
:100E300037064000D18E23A0D78083A607803706CF
:100E400000F17D16F18E37060004D18E13870780DE
:100E500023A0D780930700025CCB930700045CCBF0
:100E600013050008EFF08FC30145EFF02FAE130517
:100E70007002EFF0AFAD1305F00FEFF02FADEFF014
:100E8000AFC613050008EFF06FC11545EFF00FACCA
:100E90004145EFF0AFAB0145EFF04FABEFF0CFC402
:100EA00013058007EFF08FBF01458564814AEFF09D
:100EB000EFA90144938404432549B387840003C503
:100EC00007000504EFF08FA8E31924FFEFF0CFC16E
:100ED0000145EFF00FCC0945EFF0AFCBB71702405B
:100EE000984FB70602001367170198CFD84B558F5C
:100EF000D8CB37170140832747C0B7060044A20765
:100F0000A183D58F2322F7C0370701401C4F93E7F9
:100F100007301CCF9387C18293874706C207377774
:100F20000240C1832318F700F977A1072310F700C7
:100F3000F157A304F700EFF04FFD1389C18211C5EB
:100F40008347590193F7F70F99EB13054002854545
:100F5000EFF08FBF13850182EFF08FC801A003442B
:100F6000490183475901056A1374F40F05041D8C68
:100F7000130A8A381374F40FD28C8347490193F70C
:100F8000F70F63FA8714856493848438014D014414
:100F9000014C8145856D09452EC0EFF04FDD135B97
:100FA00015001145EFF0AFDC137BCBFF8567420BDB
:100FB000938707778245135B0B01AA8B63F3A70026
:100FC000814BB3067B033717014083A781828329B6
:100FD00087803EC093F949009307803E33D6F602DE
:100FE00063810912024713850DE1018F3A9DB30910
:100FF000C7023387EB02B357FD02B3D9A902C20778
:10100000C1833357A702AE993A9C37170140832515
:10101000878013070780C1896399050E13874401F0
:10102000BA84420741836373EA00D284C204C18058
:1010300005448145014532C636C23EC4EFF0CFB00B
:101040002685EFF00FBD1385C181EFF06FB95145D3
:10105000EFF00FB75145EFF0AFB65A85EFF06FBB29
:101060001385C181EFF0CFB789450145EFF0CFADD2
:10107000A247A14513F7C7006303B71663E7E50A64
:10108000924632466304070E9147630CF7105145B0
:10109000EFF00FB35E85EFF0CFB7370500201305F3
:1010A0000500EFF0EFB36303041837540700371B54
:1010B000014013040430638D0A0083278B800327CB
:1010C0008B8091830D83F98F858B638A0714814A06
:1010D0000244CE85C9B52285EFF04FD063769501E5
:1010E0002285EFF0AFCFAA8C2285EFF06FD2637626
:1010F000AA002285EFF0CFD12A8A05041374F40FD9
:10110000ADBD014D014C814709B71847218B11EB4B
:101110001387C4FEBA8442074183E37997F1E684DA
:1011200031B70144930A200329B7B146E311D7F63A
:10113000138B0DE133D567033EC21375F50F3931BB
:101140004D45EFF0EFA7924733FB67039307C003CA
:101150003355FB021375F50FD53E4D45EFF04FA605
:101160009307C0033375FB02D53615B7B707E803FD
:1011700063E1F60237450F001305052433D5A602B7
:1011800042054181EFF0EFA813858181EFF04FA573
:10119000FDBD131506014181EFF0AFA71385418115
:1011A000F5B7B707E803938787C163FF3701374572
:1011B0000F001305052433D5A90242054181EFF044
:1011C0004FA513850181D9B71305803E33D5A902F8
:1011D00042054181EFF0EFA31385C18045BFB707FA
:1011E000E803938787C163FF870137450F00130525
:1011F00005243355AC0242054181EFF08FA11385E0
:10120000818069B71305803E3355AC0242054181A8
:10121000EFF02FA0B70700201385470085BFFD1A08
:10122000228593FAFA0FEFE01FF171B503474901E8
:1012300083475901032609018326C9001D8F1377AF
:10124000F70F99458347490193F7F70F6374F40249
:10125000930714006379E4020A04369403552400CA
:10126000631F950293F7F70F230DF900231E9900D2
:10127000EFF0AFC93755070013050530EFE0BFEBBE
:10128000930A2003B1B5198C3304B4023294035588
:10129000040063E6A40003552400E37595FC13F4F1
:1012A000F70F4DB785679387A7D897F1FF1F9381F5
:1012B0006155174100201301E1D47D45731005BC31
:1012C00013058008732005308D4573904580130504
:1012D00040004D8D7310553073901734B7070020C0
:1012E0000567938707001307C7439386818263E8E6
:1012F000D702938781821387418B63E8E702B72780
:101300000240094798C3B717024023A2070037F7E6
:1013100000E0954614C3714798CF73002030104306
:101320001107910723AEC7FED9B7910723AE07FE79
:10133000E9B70000D20800001A090000E608000022
:1013400020090000100A00001A0900001A09000014
:101350001A090000FA0A0000140B00007C1F02208A
:10136000022002207C1F00000000000000007C1F03
:10137000001F8220822082207C00000082208220A8
:1013800082207C1F7C008000800080007C1F7C000D
:10139000822082208220001F7C1F822082208220C7
:1013A000001F7C000200020002007C1F7C1F8220C4
:1013B000822082207C1F7C008220822082207C1F51
:1013C0007C3F8200820082007C3F7C03000C003066
:1013D000000C7C037C1F0020003F00207C1F7C3F12
:1013E000800080008000003F003F8000803F800040
:1013F000003F7C1F82208220822000007C1F020090
:10140000020002007C1F7C1F8200820082007C00A0
:10141000020002007E3F020002000000300630069B
:1014200000000000000000000000000000000000BC
:0C143000A81F2001DA028D14AF0000009C
:10143C000E0AFF000E0A0DFF0A0D14FF0E0C0DFF15
:10144C000C0D14FF0E0C14FF0C1414FF0E0BFF00EC
:08145C00100014111105FF003E
:00000001FF
