:040000006F10202D30
:100004000000000000000000DA050000DA0500002E
:1000140000000000DA0500000000000000000000FD
:10002400DA050000DA05000000000000000000000E
:10003400E000000000000000DA05000000000000FD
:10004400DA050000DA050000DA050000000000000F
:10005400DA050000DA050000DA050000DA05000020
:10006400DA050000DA050000DA050000DA05000010
:10007400DA050000DA050000DA050000DA05000000
:10008400DA050000DA050000DA050000DA050000F0
:10009400DA050000DA050000DA050000DA050000E0
:1000A400DA050000DA050000DA050000DA050000D0
:1000B400DA050000DA050000DA050000DA050000C0
:1000C400DA0500008E0B0000DA050000DA050000F6
:0C00D400DA050000DA050000DA05000083
:1000E00001113EC4938781823AC698432ACE36C80E
:1000F00042C246C02ECC32CA050798C337F700E08B
:1001000003280701B16783284701938707B8C2977F
:1001100033B507011CCBB306150154CB23220700CE
:100120007245E2455246C2463247A24712488248CB
:10013000056173002030B7F700E09C4737F700E017
:100140003E951C47898FE3CE07FE828079714ECEA3
:100150005EC6B70910FFB70B00F122D426D252CCED
:1001600056CA5AC862C466C206D64AD0AA84214B6F
:1001700037140140FD1B370C0003B70C0004FD19B8
:10018000B70A4000370A300093978401E18763D6AD
:10019000070A83270480B3F77701B3E79701232089
:1001A000F48013056003413F832704801305800218
:1001B0007D1BB3F73701B3E757012320F480A53F38
:1001C000832704808604137BFB0FB3F73701B3E763
:1001D00047012320F48093F4F40FE3170BFA8327ED
:1001E0000480370700F17D17F98F37070004D98F96
:1001F0002320F480130560033D3F8327048013050B
:100200008002B3F73701B3E757012320F480253785
:1002100083270480B2509254B3F93701B3E94901FE
:100220002320348122540259F249624AD24A424B75
:10023000B24B224C924C4561828083270480B3F7F5
:100240007701B3E78701A1BF411122C493171500BD
:10025000131435003E9426C206C64AC01374E40F38
:100260009944FD14014593F4F40FCD35FDF8930442
:10027000A400056993F4F40F13098938A287CA977B
:1002800003C5070005041374F40FC935E39884FE11
:10029000B24022449244024941018280411122C469
:1002A0003714014083270480370700F17D17F98F49
:1002B0003707000326C206C6D98FAA842320F480FC
:1002C000130580028D3D83270480370710FF7D17BB
:1002D000F98F37073000D98F2320F4802244B240B1
:1002E0002685924441019DB5411122C43714014035
:1002F00003270480B70700F126C29384F7FF658FB8
:10030000B707000306C65D8F2320E4801305800233
:100310001D3503270480B70710FFFD177D8FB70732
:1003200040005D8F2320E480130580022935832758
:10033000048037070004B240E58FD98F2320F48072
:100340002244924441018280411122C42A8413052F
:10035000800706C626C2AE8491370145C53B13050A
:100360002002ED332685DD33138514001375F50F58
:10037000F13B1375F400D93B135544001365050197
:10038000F13313E5040BD9332244B24092444101C6
:10039000A1BF4111AA85014506C622C475371305C0
:1003A0008007ED3D13050004553301447D140145DC
:1003B0001374F40F613B7DF82244B24041012DB724
:1003C000411122C42A841305800706C6C13D1305C6
:1003D0000004AD3B22858D3D2244B240410129B746
:1003E000411122C42A841305800706C626C27D3522
:1003F00013050004A13B9304F00F034504006317A9
:1004000095002244B24092444101F9BD05042D3DBE
:10041000EDB701114AC82A891305800706CE22CC00
:1004200026CA4EC652C456C2953D130500048964BF
:10043000313B9549938404710144294AA54A3355B7
:100440009902A6871375F50F33799902B3D4440343
:1004500001C505041374F40F63E5FA000504137471
:10046000F40F11CCFD19CD33E39B09FC6244F2403B
:10047000D2444249B249224A924A0561B5B5514532
:10048000D5B7011122CC37140140832704803707E8
:1004900000F17D17F98F3707000426CA4AC84EC6F7
:1004A00052C456C25AC006CED98FB70910FF2320B6
:1004B000F480AA8A2149814413040480FD19370A73
:1004C0004000370B300013056003B5311C401305A5
:1004D00080028604B3F73701B3E747011CC0A13996
:1004E0001C4493F4F40F93F7070499C393E41400A6
:1004F0001C407D191379F90FB3F73701B3E7670192
:100500001CC0E31209FC638B0A001C40370700F192
:100510007D17F98F37070003D98F1CC013056003BF
:1005200019393714014003270480B70710FF1389D6
:10053000F7FF33772701B70740005D8F2320E48062
:1005400013058002CD3E8327048037073000F24038
:10055000B3F72701D98F2320F48062444249B2497E
:10056000224A924A024B2685D2440561828041117B
:1005700022C42A841305000806C60D332285F936E5
:100580003714014083270480370700F17D17F98F66
:1005900037070004D98F2320F48013058002613EC1
:1005A00083270480370710FF7D17F98F3707400036
:1005B000D98F2320F48013051008CD310545D1359E
:1005C0002A8401457D3D2204498C4204313B41800F
:1005D000B240228522444101828001A09387C188D4
:1005E00003C7470183C65701158F1377F70F636859
:1005F000A700DC470A053E950355E5FF8280198D6B
:1006000019473305E5029C4B3E950355A5FF8280B3
:100610009387C18803C7470183C65701158F137796
:10062000F70F6368A700DC470A053E950355E5FF11
:100630008280198D19473305E5029C4B3E95035581
:10064000C5FF8280B77702401307200A2396E70090
:100650002397E7009387C188A384070023850700B9
:1006600023840700238A0700A38A070023A007002A
:1006700023A207001387418523810702D8C7A381DE
:1006800007021387C1822382070298CB0547238B79
:10069000E70023800702238DE700A38DE7000567AD
:1006A00013078738239EE700239FE7008280B777F0
:1006B000024003D70700118B21C303D7E70042078D
:1006C0004183136707012397E700B77702401307B9
:1006D000F0042391E7004205A382070041812393A0
:1006E000A700A384070003C747001377F70F13671A
:1006F00037002382E700828003D7C7004207418387
:10070000136707012396E700C9B7797122D426D26F
:100710004AD04ECE52CC56CA9387C18806D65AC804
:100720005EC6239F07000569238007029304F00F2C
:100730001384C1881309093693894185138A8183FB
:10074000834B040293FBFB0F63960B00FD1493F4A1
:10075000F40F91ECB25022540259F249624AD24A43
:10076000424BB24B3335900092544561828037B58D
:10077000030013050598C132B777024003D7C700BD
:10078000420741831377E7F1420741832396E7004D
:1007900003D7C70042074183136707042396E70086
:1007A00083D6C70003D7E700C20642074183137709
:1007B000E7F1420741832397E70003D7E700C182AF
:1007C00042074183136707042397E70083D7E700B5
:1007D0000947858B99E313F71600835784018546F3
:1007E0008507C207C183231CF4001C406393D70410
:1007F0006318F7082305040083479400954685078E
:1008000093F7F70FA304F4008347940093F7F70FCF
:1008100063F1F602A304040089471CC0B7760240C6
:1008200083D70600C207C183ED9BC207C183239013
:10083000F6001440854763FBD70249E783478400ED
:100840001547850793F7F70F2304F40083478400C7
:1008500093F7F70F637CF7002304040023200400C0
:10086000B7E700E03707020023A2E718032B0400D4
:100870001C402547636FF7088A07CA979C43828705
:100880008947A3040400631CF7028347A40095462C
:10089000850793F7F70F2305F4008347A40093F728
:1008A000F70FE3F8F6F82305040018C0B776024006
:1008B00083D70600C207C18393E747008DBF230596
:1008C000040085BF2304040055B7B7E700E03707ED
:1008D000020023A2E718BD3385471CC01DA858405D
:1008E0001C406308F7023777024093077007231113
:1008F000F7008347470093F7C70F93E727002302CA
:10090000F700B7E700E0A38807423707020023A2F9
:10091000E710232264012DB58347340293F7F70FC4
:10092000EDDBA3010402B7E700E03707020003286C
:10093000C400144823A2E718A30A0400B70800F073
:10094000370300C0294E93052003194613054006BE
:100950008347440193F7F70F63EAFB00B7E700E032
:100960003707020023A2E710914785BF13972B009A
:10097000B307EA009C43B3FE170163986E06034772
:10098000540193DE170193FEFE0F1377F70F330721
:10099000C702B38EAE0236972311D7010347540125
:1009A00093DE870093FEFE0F1377F70F3307C7021E
:1009B00093F7F707B38EAE0236972310D70103479C
:1009C0005401B387B7021377F70F3307C70236977F
:1009D0002312F70083475401850793F7F70FA30A03
:1009E000F400850B93FBFB0FA5B793FEF73FA9839C
:1009F00093F7F73FB38ECE034297B387B702231026
:100A0000D7012311F700F1BF58401C406300F70CD9
:100A10008347A401834624020565130725009D8AA8
:100A2000A606D98E21671307F7E1F98E0347640103
:100A300093F6F6F313F6F70F0D8B1A07D98E0347CB
:100A40004401034854019395C7011377F70F1378B6
:100A5000F80F330707416355C7088357C40151474F
:100A6000C207C183B3D7E7021307F5FFF98FA607C3
:100A700003475401CD8F834544011377F70F329715
:100A800093F5F50F0D8F19467D173307C7021386AF
:100A9000C182329703574700130620033357C7021A
:100AA000370600031377F707518F370600FD13064B
:100AB00006F8F18FD98F138781862311F700C18340
:100AC0002310D7002312F7001945D5368347440277
:100AD00093F7F70FE38F07E2230204029547F5BB74
:100AE0001307F6FF0A074E9703570700A947370673
:100AF00000033357F7021377F73F9317A700518F7F
:100B00005D8FB367B70045BF8347340293F7F70F94
:100B1000E38107E0A3010402A5471CC0231C0400D5
:100B2000CDBB85472300F4020347A4018347B401EA
:100B30001377F70F93F7F70F631CF7000357C40100
:100B40008357E4014207C2074183C183E303F7DC13
:100B50008347A401094593F7F70FA30DF4008357CA
:100B6000C401C207C183231FF4002300040283478A
:100B70002402034764019D8BA6070D8B1A0793E798
:100B80007700D98F2394F1861D36A947B9B35D71DB
:100B90003ED0B77702403AD203C7970086C696C4C4
:100BA0009AC29EC022DE26DC2ADA2ED832D636D46D
:100BB00042CE46CC4ACA72C876C67AC47EC2137781
:100BC000070235CB03C7970085460D8B631BD704FF
:100BD00083D7A7009546C207C18363F4F60403D404
:100BE00081861389818693160401C1869384C18806
:100BF00063CE060E1D66618E9376F40163100612B5
:100C00008D476383F60E99476388F6106390E60E6E
:100C10002382D40283C72402850793F7F70F238129
:100C2000F402377702408347970093F7F70F93E773
:100C30000702A304F700B777024003C797006207D3
:100C40006187635D070403D7C70085464207418378
:100C50003D9B420741832396E70003D7E700420705
:100C600041833D9B420741832397E70013077007A9
:100C70002391E70003C747001377C70F13672700C7
:100C80002382E7001387C188A301D70203C7970017
:100C9000136707F81377F70FA384E700377702404D
:100CA0008347970093F7070491CB8347970093F707
:100CB000F70F93E70704A304F70069327254B640B4
:100CC000A64216438643E2545255C2553256A256A6
:100CD000125782577248E2485249424EB24E224F52
:100CE000924F6161730020309D479CC01305005AEC
:100CF000EFF06FC4A381040203C76401935794000B
:100D00009D8BA6070D8B1A0793E71700D98F09450E
:100D10002310F900693A31B7A147C1BFE398E6FC57
:100D20000D4798C01357C4001D8B238AE400135746
:100D300064000D8B238BE400938781860147714605
:100D4000938681838507E303C7FA03C51700B3853C
:100D5000E60005072380A500F5B7411122C42A84C7
:100D60001305800706C6EFF06FD313050004EFF0FC
:100D7000EFBDA547014563F5870029453355A4021A
:100D8000EFF08FCC29453375A402EFF0EFCB22446E
:100D9000B24041016FF04FD5B717014083A60780DD
:100DA0007D7685651306F60F1D71F18E138605801D
:100DB00086CEA2CCA6CACAC8D2C4CEC6D6C2DAC013
:100DC0005EDE62DC66DA6AD86ED602C6D18E23A0F9
:100DD000D780914623A8D78083A6078045767D16C5
:100DE000F18E2166D18E23A0D780A14623A8D7807B
:100DF00083A607803706F1FF7D16F18E37060800BF
:100E0000D18E23A0D780C14623A8D780B7F600E0B3
:100E100023A0060037E600E031652320B610130555
:100E2000F5B788CA8145CCCA81458CC60146D0C673
:100E30001D4690C283A60780370610FF7D16F18EEF
:100E400037064000D18E23A0D78083A607803706BF
:100E500000F17D16F18E37060004D18E13870780CE
:100E600023A0D780930700025CCB37A5240093070B
:100E700000045CCB130505F0EFF0EFAB13050008A1
:100E8000EFF0CFC10145EFF06FAC13057002EFF04A
:100E9000EFAB1305F00FEFF06FABEFF0EFC41305FE
:100EA0000008EFF0AFBF1545EFF04FAA4145EFF056
:100EB000EFA90145EFF08FA9EFF00FC313058007ED
:100EC000EFF0CFBD01458564014AEFF02FA8014442
:100ED0009384C4452549B387840003C507000504EE
:100EE000EFF0CFA6E31924FFEFF00FC00145EFF0BC
:100EF0004FCA0945EFF0EFC9B7170240984FB70640
:100F000002001367170198CFD84B558FD8CB3717EE
:100F10000140832747C0B7060044A207A183D58FAD
:100F20002322F7C0370701401C4F93E707301CCF3F
:100F300093878186C20737770240C1832318F70061
:100F4000F977A1072310F700F157A304F700EFF09A
:100F5000CFFB11C99387C18883C757011389C18803
:100F600093F7F70F99EB130540028545EFF0CFBDDE
:100F700013854180EFF0CFC601A0034449018347A8
:100F80005901856A1374F40F05041D8C938A8A38FD
:100F90001374F40FD68C8347490193F7F70F63F668
:100FA0008716856493848438014D0144014C814542
:100FB000856D09452EC8EFF08FDB135B15001145D9
:100FC000EFF0EFDA137BCBFF8567420B9387077750
:100FD000C245135B0B01AA8B63F3A700814BB306D9
:100FE0007B0393878182371701409C438329878045
:100FF0003EC893F949009307803E33D6F602638CCE
:101000000912424713850DE1018F3A9DB309C702CA
:101010003387EB02B357FD02B3D9A902C207C183DC
:101020003357A702AE993A9C371701408325878032
:1010300013070780C1896394051013874401BA849C
:101040004207418363F3EA00D684C204C1800544A9
:101050008145014532CE36CA3ECCEFF0EFAE268553
:10106000EFF02FBB1385C181EFF08FB75145EFF043
:101070002FB55145EFF0CFB45A85EFF08FB91385F6
:10108000C181EFF0EFB589450145EFF0EFABE247E5
:10109000A14513F7C700630EB71663E2E50CD2460D
:1010A0007246630F070E91476307F7125145EFF041
:1010B0002FB15E85EFF0EFB513854181EFF04FB2B0
:1010C000630D041837540700930BF00F371B0140D2
:1010D000130404307D1A137AFA0F630C7A01832704
:1010E0008B8003278B8091830D83F98F858B63829F
:1010F0000716B247014AFD1793F7F70F3EC699E36B
:10110000EFF0AFE04244CE856DB52285EFF00FCD14
:10111000637695012285EFF06FCCAA8C2285EFF0E3
:101120002FCF63F6AA002285EFF08FCEAA8A05049E
:101130001374F40F8DB5014D014C8147F5B5184777
:10114000218B11EB1387C4FEBA8442074183E37EEF
:1011500097EFE684DDBD0144130A2003D5BDB146F7
:10116000E316D7F4138B0DE133D567033ECA13752D
:10117000F50FE5364D45EFF0AFA4D24733FB6703DB
:101180009307C0033355FB021375F50FF9364D4530
:10119000EFF00FA39307C0033375FB027D3E39B711
:1011A000B707E80363E1F60237450F00130505248E
:1011B00033D5A60242054181EFF0AFA51385018129
:1011C000EFF00FA2E5B5131506014181EFF06FA412
:1011D00013850182F5B7B707E803938787C163FFDB
:1011E000370137450F001305052433D5A902420501
:1011F0004181EFF00FA21385C180D9B71305803E5E
:1012000033D5A90242054181EFF0AFA01385418299
:1012100045BFB707E803938787C163F18703374565
:101220000F00130505243355AC0242054181EFF050
:101230004F9EB70700201385070059B71305803E5E
:101240003355AC0242054181EFF0AF9C138581819B
:1012500085BF2285EFE03FEEB5BD034749018347D7
:101260005901032609018326C9001D8F1377F70F43
:1012700099458347490193F7F70F6374F402930785
:1012800014006379E4020A04369403552400631FB2
:10129000950293F7F70F230DF900231E9900EFF045
:1012A000CFC63755070013050530EFE0DFE8130A16
:1012B000200389BD198C3304B40232940355040011
:1012C00063E6A40003552400E37595FC13F4F70FBF
:1012D0004DB78567938787D997F1FF1F9381815217
:1012E00017410020130101D27D45731005BC130581
:1012F0008008732005308D457390458013054000AC
:101300004D8D7310553073901734B7070020056763
:1013100093870700130787469386818263E8D70285
:10132000938781821387418B63E8E702B7270240E6
:10133000094798C3B717024023A2070037F700E018
:10134000954614C3714798CF73002030104311079E
:10135000910723AEC7FED9B7910723AE07FEE9B7C1
:10136000CA08000012090000DE0800001809000089
:10137000080A00001209000012090000120900000A
:10138000080B0000220B00007C1F0220022002201C
:101390007C1F00000000000000007C1F001F822056
:1013A000822082207C0000008220822082207C1FFC
:1013B0007C008000800080007C1F7C0082208220D6
:1013C0008220001F7C1F822082208220001F7C0040
:1013D0000200020002007C1F7C1F822082208220EB
:1013E0007C1F7C008220822082207C1F7C3F820028
:1013F000820082007C3F7C03000C0030000C7C03E8
:101400007C1F0020003F00207C1F7C3F800080006C
:101410008000003F003F8000803F8000003F7C1F35
:1014200082208220822000007C1F02000200020035
:101430007C1F7C1F8200820082007C000200020070
:101440007E3F02000200000030063006000000006F
:10145000000000000000000000000000A81F2001A4
:08146000DA028D14AF00000058
:101468000A0D14FF100014111105FF000C0D14FFD4
:101478000C1414FF0E0AFF000E0A0DFF0E0BFF00DE
:081488000E0C14FF0E0C0DFF09
:00000001FF
